{
  "_format": "hh-sol-artifact-1",
  "contractName": "ProprieteToken",
  "sourceName": "contracts/ProprieteToken.sol",
  "abi": [
    {
      "inputs": [
        {
          "internalType": "string",
          "name": "nomPropriete",
          "type": "string"
        },
        {
          "internalType": "uint256",
          "name": "_idBackend",
          "type": "uint256"
        },
        {
          "internalType": "uint256",
          "name": "_nombreParts",
          "type": "uint256"
        },
        {
          "internalType": "uint256",
          "name": "_prixParPart",
          "type": "uint256"
        }
      ],
      "stateMutability": "nonpayable",
      "type": "constructor"
    },
    {
      "inputs": [
        {
          "internalType": "address",
          "name": "spender",
          "type": "address"
        },
        {
          "internalType": "uint256",
          "name": "allowance",
          "type": "uint256"
        },
        {
          "internalType": "uint256",
          "name": "needed",
          "type": "uint256"
        }
      ],
      "name": "ERC20InsufficientAllowance",
      "type": "error"
    },
    {
      "inputs": [
        {
          "internalType": "address",
          "name": "sender",
          "type": "address"
        },
        {
          "internalType": "uint256",
          "name": "balance",
          "type": "uint256"
        },
        {
          "internalType": "uint256",
          "name": "needed",
          "type": "uint256"
        }
      ],
      "name": "ERC20InsufficientBalance",
      "type": "error"
    },
    {
      "inputs": [
        {
          "internalType": "address",
          "name": "approver",
          "type": "address"
        }
      ],
      "name": "ERC20InvalidApprover",
      "type": "error"
    },
    {
      "inputs": [
        {
          "internalType": "address",
          "name": "receiver",
          "type": "address"
        }
      ],
      "name": "ERC20InvalidReceiver",
      "type": "error"
    },
    {
      "inputs": [
        {
          "internalType": "address",
          "name": "sender",
          "type": "address"
        }
      ],
      "name": "ERC20InvalidSender",
      "type": "error"
    },
    {
      "inputs": [
        {
          "internalType": "address",
          "name": "spender",
          "type": "address"
        }
      ],
      "name": "ERC20InvalidSpender",
      "type": "error"
    },
    {
      "inputs": [
        {
          "internalType": "address",
          "name": "owner",
          "type": "address"
        }
      ],
      "name": "OwnableInvalidOwner",
      "type": "error"
    },
    {
      "inputs": [
        {
          "internalType": "address",
          "name": "account",
          "type": "address"
        }
      ],
      "name": "OwnableUnauthorizedAccount",
      "type": "error"
    },
    {
      "anonymous": false,
      "inputs": [
        {
          "indexed": true,
          "internalType": "address",
          "name": "owner",
          "type": "address"
        },
        {
          "indexed": true,
          "internalType": "address",
          "name": "spender",
          "type": "address"
        },
        {
          "indexed": false,
          "internalType": "uint256",
          "name": "value",
          "type": "uint256"
        }
      ],
      "name": "Approval",
      "type": "event"
    },
    {
      "anonymous": false,
      "inputs": [
        {
          "indexed": true,
          "internalType": "address",
          "name": "previousOwner",
          "type": "address"
        },
        {
          "indexed": true,
          "internalType": "address",
          "name": "newOwner",
          "type": "address"
        }
      ],
      "name": "OwnershipTransferred",
      "type": "event"
    },
    {
      "anonymous": false,
      "inputs": [
        {
          "indexed": true,
          "internalType": "address",
          "name": "acheteur",
          "type": "address"
        },
        {
          "indexed": false,
          "internalType": "uint256",
          "name": "montant",
          "type": "uint256"
        }
      ],
      "name": "PartAchetee",
      "type": "event"
    },
    {
      "anonymous": false,
      "inputs": [
        {
          "indexed": true,
          "internalType": "address",
          "name": "from",
          "type": "address"
        },
        {
          "indexed": true,
          "internalType": "address",
          "name": "to",
          "type": "address"
        },
        {
          "indexed": false,
          "internalType": "uint256",
          "name": "value",
          "type": "uint256"
        }
      ],
      "name": "Transfer",
      "type": "event"
    },
    {
      "inputs": [
        {
          "internalType": "uint256",
          "name": "nombreParts",
          "type": "uint256"
        }
      ],
      "name": "acheterParts",
      "outputs": [],
      "stateMutability": "payable",
      "type": "function"
    },
    {
      "inputs": [
        {
          "internalType": "address",
          "name": "owner",
          "type": "address"
        },
        {
          "internalType": "address",
          "name": "spender",
          "type": "address"
        }
      ],
      "name": "allowance",
      "outputs": [
        {
          "internalType": "uint256",
          "name": "",
          "type": "uint256"
        }
      ],
      "stateMutability": "view",
      "type": "function"
    },
    {
      "inputs": [
        {
          "internalType": "address",
          "name": "spender",
          "type": "address"
        },
        {
          "internalType": "uint256",
          "name": "value",
          "type": "uint256"
        }
      ],
      "name": "approve",
      "outputs": [
        {
          "internalType": "bool",
          "name": "",
          "type": "bool"
        }
      ],
      "stateMutability": "nonpayable",
      "type": "function"
    },
    {
      "inputs": [
        {
          "internalType": "address",
          "name": "account",
          "type": "address"
        }
      ],
      "name": "balanceOf",
      "outputs": [
        {
          "internalType": "uint256",
          "name": "",
          "type": "uint256"
        }
      ],
      "stateMutability": "view",
      "type": "function"
    },
    {
      "inputs": [],
      "name": "decimals",
      "outputs": [
        {
          "internalType": "uint8",
          "name": "",
          "type": "uint8"
        }
      ],
      "stateMutability": "view",
      "type": "function"
    },
    {
      "inputs": [],
      "name": "idProprieteBackend",
      "outputs": [
        {
          "internalType": "uint256",
          "name": "",
          "type": "uint256"
        }
      ],
      "stateMutability": "view",
      "type": "function"
    },
    {
      "inputs": [],
      "name": "name",
      "outputs": [
        {
          "internalType": "string",
          "name": "",
          "type": "string"
        }
      ],
      "stateMutability": "view",
      "type": "function"
    },
    {
      "inputs": [],
      "name": "nombreTotalParts",
      "outputs": [
        {
          "internalType": "uint256",
          "name": "",
          "type": "uint256"
        }
      ],
      "stateMutability": "view",
      "type": "function"
    },
    {
      "inputs": [],
      "name": "owner",
      "outputs": [
        {
          "internalType": "address",
          "name": "",
          "type": "address"
        }
      ],
      "stateMutability": "view",
      "type": "function"
    },
    {
      "inputs": [],
      "name": "partsDisponibles",
      "outputs": [
        {
          "internalType": "uint256",
          "name": "",
          "type": "uint256"
        }
      ],
      "stateMutability": "view",
      "type": "function"
    },
    {
      "inputs": [],
      "name": "prixParPart",
      "outputs": [
        {
          "internalType": "uint256",
          "name": "",
          "type": "uint256"
        }
      ],
      "stateMutability": "view",
      "type": "function"
    },
    {
      "inputs": [],
      "name": "renounceOwnership",
      "outputs": [],
      "stateMutability": "nonpayable",
      "type": "function"
    },
    {
      "inputs": [],
      "name": "symbol",
      "outputs": [
        {
          "internalType": "string",
          "name": "",
          "type": "string"
        }
      ],
      "stateMutability": "view",
      "type": "function"
    },
    {
      "inputs": [],
      "name": "totalSupply",
      "outputs": [
        {
          "internalType": "uint256",
          "name": "",
          "type": "uint256"
        }
      ],
      "stateMutability": "view",
      "type": "function"
    },
    {
      "inputs": [
        {
          "internalType": "address",
          "name": "to",
          "type": "address"
        },
        {
          "internalType": "uint256",
          "name": "value",
          "type": "uint256"
        }
      ],
      "name": "transfer",
      "outputs": [
        {
          "internalType": "bool",
          "name": "",
          "type": "bool"
        }
      ],
      "stateMutability": "nonpayable",
      "type": "function"
    },
    {
      "inputs": [
        {
          "internalType": "address",
          "name": "from",
          "type": "address"
        },
        {
          "internalType": "address",
          "name": "to",
          "type": "address"
        },
        {
          "internalType": "uint256",
          "name": "value",
          "type": "uint256"
        }
      ],
      "name": "transferFrom",
      "outputs": [
        {
          "internalType": "bool",
          "name": "",
          "type": "bool"
        }
      ],
      "stateMutability": "nonpayable",
      "type": "function"
    },
    {
      "inputs": [
        {
          "internalType": "address",
          "name": "newOwner",
          "type": "address"
        }
      ],
      "name": "transferOwnership",
      "outputs": [],
      "stateMutability": "nonpayable",
      "type": "function"
    }
  ],
  "bytecode": "0x60e06040523480156200001157600080fd5b50604051620021c8380380620021c88339818101604052810190620000379190620006a1565b33846040518060400160405280600581526020017f4655525341000000000000000000000000000000000000000000000000000000815250816003908162000080919062000973565b50806004908162000092919062000973565b505050600073ffffffffffffffffffffffffffffffffffffffff168173ffffffffffffffffffffffffffffffffffffffff16036200010a5760006040517f1e4fbdf700000000000000000000000000000000000000000000000000000000815260040162000101919062000a9f565b60405180910390fd5b6200011b816200015060201b60201c565b5082608081815250508160a081815250508060c081815250506200014630836200021660201b60201c565b5050505062000b91565b6000600560009054906101000a900473ffffffffffffffffffffffffffffffffffffffff16905081600560006101000a81548173ffffffffffffffffffffffffffffffffffffffff021916908373ffffffffffffffffffffffffffffffffffffffff1602179055508173ffffffffffffffffffffffffffffffffffffffff168173ffffffffffffffffffffffffffffffffffffffff167f8be0079c531659141344cd1fd0a4f28419497f9722a3daafe3b4186f6b6457e060405160405180910390a35050565b600073ffffffffffffffffffffffffffffffffffffffff168273ffffffffffffffffffffffffffffffffffffffff16036200028b5760006040517fec442f0500000000000000000000000000000000000000000000000000000000815260040162000282919062000a9f565b60405180910390fd5b6200029f60008383620002a360201b60201c565b5050565b600073ffffffffffffffffffffffffffffffffffffffff168373ffffffffffffffffffffffffffffffffffffffff1603620002f9578060026000828254620002ec919062000aeb565b92505081905550620003cf565b60008060008573ffffffffffffffffffffffffffffffffffffffff1673ffffffffffffffffffffffffffffffffffffffff1681526020019081526020016000205490508181101562000388578381836040517fe450d38c0000000000000000000000000000000000000000000000000000000081526004016200037f9392919062000b37565b60405180910390fd5b8181036000808673ffffffffffffffffffffffffffffffffffffffff1673ffffffffffffffffffffffffffffffffffffffff16815260200190815260200160002081905550505b600073ffffffffffffffffffffffffffffffffffffffff168273ffffffffffffffffffffffffffffffffffffffff16036200041a578060026000828254039250508190555062000467565b806000808473ffffffffffffffffffffffffffffffffffffffff1673ffffffffffffffffffffffffffffffffffffffff168152602001908152602001600020600082825401925050819055505b8173ffffffffffffffffffffffffffffffffffffffff168373ffffffffffffffffffffffffffffffffffffffff167fddf252ad1be2c89b69c2b068fc378daa952ba7f163c4a11628f55a4df523b3ef83604051620004c6919062000b74565b60405180910390a3505050565b6000604051905090565b600080fd5b600080fd5b600080fd5b600080fd5b6000601f19601f8301169050919050565b7f4e487b7100000000000000000000000000000000000000000000000000000000600052604160045260246000fd5b6200053c82620004f1565b810181811067ffffffffffffffff821117156200055e576200055d62000502565b5b80604052505050565b600062000573620004d3565b905062000581828262000531565b919050565b600067ffffffffffffffff821115620005a457620005a362000502565b5b620005af82620004f1565b9050602081019050919050565b60005b83811015620005dc578082015181840152602081019050620005bf565b60008484015250505050565b6000620005ff620005f98462000586565b62000567565b9050828152602081018484840111156200061e576200061d620004ec565b5b6200062b848285620005bc565b509392505050565b600082601f8301126200064b576200064a620004e7565b5b81516200065d848260208601620005e8565b91505092915050565b6000819050919050565b6200067b8162000666565b81146200068757600080fd5b50565b6000815190506200069b8162000670565b92915050565b60008060008060808587031215620006be57620006bd620004dd565b5b600085015167ffffffffffffffff811115620006df57620006de620004e2565b5b620006ed8782880162000633565b945050602062000700878288016200068a565b935050604062000713878288016200068a565b925050606062000726878288016200068a565b91505092959194509250565b600081519050919050565b7f4e487b7100000000000000000000000000000000000000000000000000000000600052602260045260246000fd5b600060028204905060018216806200078557607f821691505b6020821081036200079b576200079a6200073d565b5b50919050565b60008190508160005260206000209050919050565b60006020601f8301049050919050565b600082821b905092915050565b600060088302620008057fffffffffffffffffffffffffffffffffffffffffffffffffffffffffffffffff82620007c6565b620008118683620007c6565b95508019841693508086168417925050509392505050565b6000819050919050565b6000620008546200084e620008488462000666565b62000829565b62000666565b9050919050565b6000819050919050565b620008708362000833565b620008886200087f826200085b565b848454620007d3565b825550505050565b600090565b6200089f62000890565b620008ac81848462000865565b505050565b5b81811015620008d457620008c860008262000895565b600181019050620008b2565b5050565b601f8211156200092357620008ed81620007a1565b620008f884620007b6565b8101602085101562000908578190505b620009206200091785620007b6565b830182620008b1565b50505b505050565b600082821c905092915050565b6000620009486000198460080262000928565b1980831691505092915050565b600062000963838362000935565b9150826002028217905092915050565b6200097e8262000732565b67ffffffffffffffff8111156200099a576200099962000502565b5b620009a682546200076c565b620009b3828285620008d8565b600060209050601f831160018114620009eb5760008415620009d6578287015190505b620009e2858262000955565b86555062000a52565b601f198416620009fb86620007a1565b60005b8281101562000a2557848901518255600182019150602085019450602081019050620009fe565b8683101562000a45578489015162000a41601f89168262000935565b8355505b6001600288020188555050505b505050505050565b600073ffffffffffffffffffffffffffffffffffffffff82169050919050565b600062000a878262000a5a565b9050919050565b62000a998162000a7a565b82525050565b600060208201905062000ab6600083018462000a8e565b92915050565b7f4e487b7100000000000000000000000000000000000000000000000000000000600052601160045260246000fd5b600062000af88262000666565b915062000b058362000666565b925082820190508082111562000b205762000b1f62000abc565b5b92915050565b62000b318162000666565b82525050565b600060608201905062000b4e600083018662000a8e565b62000b5d602083018562000b26565b62000b6c604083018462000b26565b949350505050565b600060208201905062000b8b600083018462000b26565b92915050565b60805160a05160c05161160062000bc86000396000818161050c0152610573015260006107d2015260006107f601526116006000f3fe6080604052600436106100fe5760003560e01c8063715018a611610095578063a9059cbb11610064578063a9059cbb1461031a578063cd9794fa14610357578063db01a5a614610382578063dd62ed3e146103ad578063f2fde38b146103ea576100fe565b8063715018a6146102825780638da5cb5b1461029957806395d89b41146102c4578063a36c8d18146102ef576100fe565b8063313ce567116100d1578063313ce567146101d357806361bc49ce146101fe5780636e7a44b11461022957806370a0823114610245576100fe565b806306fdde0314610103578063095ea7b31461012e57806318160ddd1461016b57806323b872dd14610196575b600080fd5b34801561010f57600080fd5b50610118610413565b60405161012591906110a1565b60405180910390f35b34801561013a57600080fd5b506101556004803603810190610150919061115c565b6104a5565b60405161016291906111b7565b60405180910390f35b34801561017757600080fd5b506101806104c8565b60405161018d91906111e1565b60405180910390f35b3480156101a257600080fd5b506101bd60048036038101906101b891906111fc565b6104d2565b6040516101ca91906111b7565b60405180910390f35b3480156101df57600080fd5b506101e8610501565b6040516101f5919061126b565b60405180910390f35b34801561020a57600080fd5b5061021361050a565b60405161022091906111e1565b60405180910390f35b610243600480360381019061023e9190611286565b61052e565b005b34801561025157600080fd5b5061026c600480360381019061026791906112b3565b610685565b60405161027991906111e1565b60405180910390f35b34801561028e57600080fd5b506102976106cd565b005b3480156102a557600080fd5b506102ae6106e1565b6040516102bb91906112ef565b60405180910390f35b3480156102d057600080fd5b506102d961070b565b6040516102e691906110a1565b60405180910390f35b3480156102fb57600080fd5b5061030461079d565b60405161031191906111e1565b60405180910390f35b34801561032657600080fd5b50610341600480360381019061033c919061115c565b6107ad565b60405161034e91906111b7565b60405180910390f35b34801561036357600080fd5b5061036c6107d0565b60405161037991906111e1565b60405180910390f35b34801561038e57600080fd5b506103976107f4565b6040516103a491906111e1565b60405180910390f35b3480156103b957600080fd5b506103d460048036038101906103cf919061130a565b610818565b6040516103e191906111e1565b60405180910390f35b3480156103f657600080fd5b50610411600480360381019061040c91906112b3565b61089f565b005b60606003805461042290611379565b80601f016020809104026020016040519081016040528092919081815260200182805461044e90611379565b801561049b5780601f106104705761010080835404028352916020019161049b565b820191906000526020600020905b81548152906001019060200180831161047e57829003601f168201915b5050505050905090565b6000806104b0610925565b90506104bd81858561092d565b600191505092915050565b6000600254905090565b6000806104dd610925565b90506104ea85828561093f565b6104f58585856109d4565b60019150509392505050565b60006012905090565b7f000000000000000000000000000000000000000000000000000000000000000081565b60008111610571576040517f08c379a0000000000000000000000000000000000000000000000000000000008152600401610568906113f6565b60405180910390fd5b7f00000000000000000000000000000000000000000000000000000000000000008161059d9190611445565b34146105de576040517f08c379a00000000000000000000000000000000000000000000000000000000081526004016105d5906114d3565b60405180910390fd5b806105e830610685565b1015610629576040517f08c379a00000000000000000000000000000000000000000000000000000000081526004016106209061153f565b60405180910390fd5b6106343033836109d4565b3373ffffffffffffffffffffffffffffffffffffffff167f886b20202c2af517363bd4bb997ae7eb73ea3702bd15ab2d3eaab0be2b1e684d8260405161067a91906111e1565b60405180910390a250565b60008060008373ffffffffffffffffffffffffffffffffffffffff1673ffffffffffffffffffffffffffffffffffffffff168152602001908152602001600020549050919050565b6106d5610ac8565b6106df6000610b4f565b565b6000600560009054906101000a900473ffffffffffffffffffffffffffffffffffffffff16905090565b60606004805461071a90611379565b80601f016020809104026020016040519081016040528092919081815260200182805461074690611379565b80156107935780601f1061076857610100808354040283529160200191610793565b820191906000526020600020905b81548152906001019060200180831161077657829003601f168201915b5050505050905090565b60006107a830610685565b905090565b6000806107b8610925565b90506107c58185856109d4565b600191505092915050565b7f000000000000000000000000000000000000000000000000000000000000000081565b7f000000000000000000000000000000000000000000000000000000000000000081565b6000600160008473ffffffffffffffffffffffffffffffffffffffff1673ffffffffffffffffffffffffffffffffffffffff16815260200190815260200160002060008373ffffffffffffffffffffffffffffffffffffffff1673ffffffffffffffffffffffffffffffffffffffff16815260200190815260200160002054905092915050565b6108a7610ac8565b600073ffffffffffffffffffffffffffffffffffffffff168173ffffffffffffffffffffffffffffffffffffffff16036109195760006040517f1e4fbdf700000000000000000000000000000000000000000000000000000000815260040161091091906112ef565b60405180910390fd5b61092281610b4f565b50565b600033905090565b61093a8383836001610c15565b505050565b600061094b8484610818565b90507fffffffffffffffffffffffffffffffffffffffffffffffffffffffffffffffff8110156109ce57818110156109be578281836040517ffb8f41b20000000000000000000000000000000000000000000000000000000081526004016109b59392919061155f565b60405180910390fd5b6109cd84848484036000610c15565b5b50505050565b600073ffffffffffffffffffffffffffffffffffffffff168373ffffffffffffffffffffffffffffffffffffffff1603610a465760006040517f96c6fd1e000000000000000000000000000000000000000000000000000000008152600401610a3d91906112ef565b60405180910390fd5b600073ffffffffffffffffffffffffffffffffffffffff168273ffffffffffffffffffffffffffffffffffffffff1603610ab85760006040517fec442f05000000000000000000000000000000000000000000000000000000008152600401610aaf91906112ef565b60405180910390fd5b610ac3838383610dec565b505050565b610ad0610925565b73ffffffffffffffffffffffffffffffffffffffff16610aee6106e1565b73ffffffffffffffffffffffffffffffffffffffff1614610b4d57610b11610925565b6040517f118cdaa7000000000000000000000000000000000000000000000000000000008152600401610b4491906112ef565b60405180910390fd5b565b6000600560009054906101000a900473ffffffffffffffffffffffffffffffffffffffff16905081600560006101000a81548173ffffffffffffffffffffffffffffffffffffffff021916908373ffffffffffffffffffffffffffffffffffffffff1602179055508173ffffffffffffffffffffffffffffffffffffffff168173ffffffffffffffffffffffffffffffffffffffff167f8be0079c531659141344cd1fd0a4f28419497f9722a3daafe3b4186f6b6457e060405160405180910390a35050565b600073ffffffffffffffffffffffffffffffffffffffff168473ffffffffffffffffffffffffffffffffffffffff1603610c875760006040517fe602df05000000000000000000000000000000000000000000000000000000008152600401610c7e91906112ef565b60405180910390fd5b600073ffffffffffffffffffffffffffffffffffffffff168373ffffffffffffffffffffffffffffffffffffffff1603610cf95760006040517f94280d62000000000000000000000000000000000000000000000000000000008152600401610cf091906112ef565b60405180910390fd5b81600160008673ffffffffffffffffffffffffffffffffffffffff1673ffffffffffffffffffffffffffffffffffffffff16815260200190815260200160002060008573ffffffffffffffffffffffffffffffffffffffff1673ffffffffffffffffffffffffffffffffffffffff168152602001908152602001600020819055508015610de6578273ffffffffffffffffffffffffffffffffffffffff168473ffffffffffffffffffffffffffffffffffffffff167f8c5be1e5ebec7d5bd14f71427d1e84f3dd0314c0f7b2291e5b200ac8c7c3b92584604051610ddd91906111e1565b60405180910390a35b50505050565b600073ffffffffffffffffffffffffffffffffffffffff168373ffffffffffffffffffffffffffffffffffffffff1603610e3e578060026000828254610e329190611596565b92505081905550610f11565b60008060008573ffffffffffffffffffffffffffffffffffffffff1673ffffffffffffffffffffffffffffffffffffffff16815260200190815260200160002054905081811015610eca578381836040517fe450d38c000000000000000000000000000000000000000000000000000000008152600401610ec19392919061155f565b60405180910390fd5b8181036000808673ffffffffffffffffffffffffffffffffffffffff1673ffffffffffffffffffffffffffffffffffffffff16815260200190815260200160002081905550505b600073ffffffffffffffffffffffffffffffffffffffff168273ffffffffffffffffffffffffffffffffffffffff1603610f5a5780600260008282540392505081905550610fa7565b806000808473ffffffffffffffffffffffffffffffffffffffff1673ffffffffffffffffffffffffffffffffffffffff168152602001908152602001600020600082825401925050819055505b8173ffffffffffffffffffffffffffffffffffffffff168373ffffffffffffffffffffffffffffffffffffffff167fddf252ad1be2c89b69c2b068fc378daa952ba7f163c4a11628f55a4df523b3ef8360405161100491906111e1565b60405180910390a3505050565b600081519050919050565b600082825260208201905092915050565b60005b8381101561104b578082015181840152602081019050611030565b60008484015250505050565b6000601f19601f8301169050919050565b600061107382611011565b61107d818561101c565b935061108d81856020860161102d565b61109681611057565b840191505092915050565b600060208201905081810360008301526110bb8184611068565b905092915050565b600080fd5b600073ffffffffffffffffffffffffffffffffffffffff82169050919050565b60006110f3826110c8565b9050919050565b611103816110e8565b811461110e57600080fd5b50565b600081359050611120816110fa565b92915050565b6000819050919050565b61113981611126565b811461114457600080fd5b50565b60008135905061115681611130565b92915050565b60008060408385031215611173576111726110c3565b5b600061118185828601611111565b925050602061119285828601611147565b9150509250929050565b60008115159050919050565b6111b18161119c565b82525050565b60006020820190506111cc60008301846111a8565b92915050565b6111db81611126565b82525050565b60006020820190506111f660008301846111d2565b92915050565b600080600060608486031215611215576112146110c3565b5b600061122386828701611111565b935050602061123486828701611111565b925050604061124586828701611147565b9150509250925092565b600060ff82169050919050565b6112658161124f565b82525050565b6000602082019050611280600083018461125c565b92915050565b60006020828403121561129c5761129b6110c3565b5b60006112aa84828501611147565b91505092915050565b6000602082840312156112c9576112c86110c3565b5b60006112d784828501611111565b91505092915050565b6112e9816110e8565b82525050565b600060208201905061130460008301846112e0565b92915050565b60008060408385031215611321576113206110c3565b5b600061132f85828601611111565b925050602061134085828601611111565b9150509250929050565b7f4e487b7100000000000000000000000000000000000000000000000000000000600052602260045260246000fd5b6000600282049050600182168061139157607f821691505b6020821081036113a4576113a361134a565b5b50919050565b7f5175616e7469746520696e76616c696465000000000000000000000000000000600082015250565b60006113e060118361101c565b91506113eb826113aa565b602082019050919050565b6000602082019050818103600083015261140f816113d3565b9050919050565b7f4e487b7100000000000000000000000000000000000000000000000000000000600052601160045260246000fd5b600061145082611126565b915061145b83611126565b925082820261146981611126565b915082820484148315176114805761147f611416565b5b5092915050565b7f4d6f6e74616e7420696e636f7272656374000000000000000000000000000000600082015250565b60006114bd60118361101c565b91506114c882611487565b602082019050919050565b600060208201905081810360008301526114ec816114b0565b9050919050565b7f506172747320696e737566666973616e74657300000000000000000000000000600082015250565b600061152960138361101c565b9150611534826114f3565b602082019050919050565b600060208201905081810360008301526115588161151c565b9050919050565b600060608201905061157460008301866112e0565b61158160208301856111d2565b61158e60408301846111d2565b949350505050565b60006115a182611126565b91506115ac83611126565b92508282019050808211156115c4576115c3611416565b5b9291505056fea264697066735822122041f17498723e009e33d5025ceebe68f7475961fa6ad17c488ba281c1f0858aef64736f6c63430008140033",
  "linkReferences": {},
  "deployedLinkReferences": {}
}